:020000040800F2
:100000002808002091010008B11D00089917000878
:10001000191B0008470600083B23000800000000E9
:1000200000000000000000000000000001200008A7
:100030007F07000800000000B31D0008952000089D
:10004000AB010008AB010008AB010008AB010008E0
:10005000AB010008AB010008AB010008AB010008D0
:10006000AB010008AB010008AB010008AB010008C0
:10007000AB010008AB010008AB010008AB010008B0
:10008000AB010008AB010008AB010008AB010008A0
:10009000AB010008AB010008AB010008AB01000890
:1000A000AB010008AB010008AB010008AB01000880
:1000B000AB010008AB010008AB010008AB01000870
:1000C000AB010008AB010008AB010008AB01000860
:1000D000AB010008AB010008AB010008AB01000850
:1000E000AB010008AB010008AB01000800F002F80A
:1000F00000F03EF80AA090E8000C82448344AAF184
:100100000107DA4501D100F033F8AFF2090EBAE881
:100110000F0013F0010F18BFFB1A43F0010318473B
:10012000A4220000C4220000103A24BF78C878C17D
:10013000FAD8520724BF30C830C144BF04680C60ED
:10014000704700000023002400250026103A28BF35
:1001500078C1FBD8520728BF30C148BF0B60704739
:100160001FB59DE8030000F0CFF81FBD10B510BD0E
:1001700000F026F91146FFF7F3FF02F0EFF800F068
:1001800044F903B4FFF7F2FF03BC00F075F9000077
:100190000948804709480047FEE7FEE7FEE7FEE71B
:1001A000FEE7FEE7FEE7FEE7FEE7FEE70448054957
:1001B000054A064B70470000F7200008ED000008D4
:1001C00028020020280800202804002028040020FD
:1001D00070B5064600F07CF8056806F10B0020F0CB
:1001E0000704B4429CBF002070BD2B466A68BAB1B8
:1001F0001068A04210D304F1080188423CBF506847
:10020000586007D35168101941601168091B0160DB
:1002100058601460101D70BD13465268002AE7D163
:100220002146284600F05CF80028DED170BD70B58C
:100230000446051F00F04CF80068002C14BF446809
:1002400070BD002C18BFAC423CBF20466468F8D398
:1002500001680A18AA4218BF456003D12A680546FA
:100260001144016028684119A1421CBF6C6070BD37
:100270006168696021680844286070BD4FF0000221
:1002800000B5134694469646203922BFA0E80C508C
:10029000A0E80C50B1F12001BFF4F7AF090728BF67
:1002A000A0E80C5048BF0CC05DF804EB890028BFE3
:1002B00040F8042B08BF704748BF20F8022B11F00C
:1002C000804F18BF00F8012B704770477047704788
:1002D00000487047CC010020704770477047704756
:1002E00038B504460A4600206946AFF3008000286E
:1002F00008BF38BD02460099204600F03FF80120B3
:1003000038BD012000F054B8F8B5AFF300800546C1
:1003100000200C46102000BF0646A819A0420DD9A7
:10032000324669460020AFF30080070008BF00F0A6
:100330003FF80098A04218BF0546C419FFF7C8FF50
:1003400005600746F01D20F007004619284600F01A
:100350000AF8B44208BFF8BDA21B31463868BDE8B0
:10036000F84000F00BB800210160C0E901107047AF
:100370001020704700487047C401002003464068C1
:100380008C46002818BF88423CBF03464068F8D31B
:1003900018681844884207D00CF1030020F00700C9
:1003A000001D411A521A0146081D0A60FFF73FBF9F
:1003B00010B500F039F8BDE8104000F02FB87047D4
:1003C0007546FFF7D7FFAE4605006946534620F055
:1003D0000700854618B020B5FFF7E8FEBDE82040CD
:1003E0004FF000064FF000074FF000084FF0000BF1
:1003F00021F00701AC46ACE8C009ACE8C009ACE8A4
:10040000C009ACE8C0098D46704710B50446AFF38B
:1004100000802046BDE81040FFF7B3BE002801D0A1
:1004200000F02AB87047000010B5012805D000215F
:1004300003A000F027F8012010BD09A1F8E7000093
:1004400053494752544D454D3A204F7574206F66BD
:100450002068656170206D656D6F72790000000025
:100460003A2048656170206D656D6F727920636F09
:10047000727275707465640001491820ABBEFEE7A6
:100480002600020070B505460C460A2000E06D1CEF
:1004900000F011F835B128780028F8D102E0641C8A
:1004A00000F009F814B120780028F8D1BDE87040B8
:1004B0000A20AFF3008008B569468DF800000320DC
:1004C000ABBE08BD2DE9F04104460868C8260D46BC
:1004D00040685F27007A68B92088401C80B220807D
:1004E000C82801D9268002E05F2800D22780208812
:1004F00001F098FD28684068407A00280FD12088D4
:10050000401E80B22080C82801D9268002E05F28E2
:1005100000D227802088BDE8F04101F083BDBDE80E
:10052000F08110B504460068002101F081FD2068CB
:100530000121801C01F07CFD20680221BDE81040F3
:10054000001D01F075BD2DE9F04104460868D7266D
:100550000D4640687827807B68B96088401C80B26F
:100560006080D72801D9668002E0782800D26780B1
:10057000608801F06FFD28684068007B00280FD17B
:100580006088401E80B26080D72801D9668002E072
:10059000782800D267806088BDE8F04101F05ABD3C
:1005A000BDE8F08170B5044608680D46406801F06A
:1005B0000DFC20682946001D00F016F82068294629
:1005C000801CFFF7C0FF29462068BDE87040FFF798
:1005D00079BF10B5FFF7E6FF012001F041FDBDE84E
:1005E0001040022001F04CBD2DE9F041044608689E
:1005F000E6260D4640688C27C07B68B9A088401C61
:1006000080B2A080E62801D9A68002E08C2800D222
:10061000A780A08801F02EFD28684068407B002854
:100620000FD1A088401E80B2A080E62801D9A68004
:1006300002E08C2800D2A780A088BDE8F04101F03C
:1006400019BDBDE8F081FEE710B5044680680321BE
:10065000801D01F0EDFC6068BDE8104001F0AABA11
:100660002DE9F041044608680D46406801F0AEFBF4
:10067000206840F2E731018028684268107910B1A3
:10068000012806D007E0907918B3606801F008FBF4
:1006900001E001F03DFB28684168887910B101282C
:1006A00008D009E00879A0B120680188606801F0ED
:1006B0008DFA01E001F0C2FA28684068017911B1B1
:1006C000012903D008E0807918B105E0807901287C
:1006D00002D1606801F04EFB2868B62666274068A4
:1006E000C07A80B9A168C888C01C80B2C880A168DF
:1006F000B62801D9CE8002E0662800D2CF80A0685B
:10070000C08801F07FFC28684068807A80B9A168C1
:10071000C888C01E80B2C880A168B62801D9CE8022
:1007200002E0662800D2CF80A068C08801F06AFC91
:1007300028684068C17A002909D0807A002806D04C
:10074000A1688E20C880BDE8F04101F05BBCBDE827
:10075000F08110B50446FFF783FF032001F058FC39
:1007600060688078022805D0012807D1BDE81040D4
:1007700001F0B6BABDE8104001F048BA10BD7047AC
:100780000D4900220B685A620A68136843F001039E
:10079000136009684A6A8242FCD3086A41F2111266
:1007A000104207D1086A9210104203D1086820F065
:1007B00001000860704700009800002072B6FEE754
:1007C0002DE9F84FDFF8B8910024A9F1040B234676
:1007D0000F2709F1040AABF1040EC9E00125A54079
:1007E0002A40AA427DD1674ED1F804C0ACEB06087E
:1007F000B44532D014DCBCF1030F3AD009DCBCF1B3
:10080000000F2AD0BCF1010F1CD0BCF1020F31D176
:100810001DE0BCF1110F17D0BCF1120F2AD119E065
:10082000B8F5881F19D006DCB8F5803F15D0B8F5AB
:10083000801F1FD111E0B8F5001F0ED0B8F5041FBE
:1008400018D10AE0CB6815E0CB681B1D12E0CB681D
:1008500008330FE0CB680C330CE08B682BB1012B15
:100860004FF0080303D0456104E0042302E0056172
:1008700000E00023FF2A01D8064601E000F104064B
:100880004FEA840501D9A5F12005D6F8008007FAC2
:1008900005FC28EA0C0803FA05F548EA0508C6F83D
:1008A00000804D68ED0062D5374DAE6946F0010617
:1008B000AE61AD6924F0030605F001050095334DE6
:1008C00006EB050CDCF80850A607360F07FA06F809
:1008D00025EA0805DFF8B880404503D14FF000084D
:1008E00017E044E0DFF8AC80404502D14FF001084A
:1008F0000FE0DFF8A480404502D14FF0020808E085
:10090000DFF89880404502D14FF0030801E04FF036
:10091000040808FA06F848EA0508CCF808804D688B
:10092000D9F80060ED024D4601D5164300E096432C
:100930002E604D68DAF80060AD02554601D51643C9
:1009400000E096432E604D68DBF80060AD035D4625
:1009500001D5164300E096432E604D68DEF8006036
:10096000ED03754601D5164300E096432E60641CE6
:100970000D682A46E5407FF431AFBDE8F88F0000EE
:100980000804014000001110001002400000014066
:1009900000080140000C014000100140001401401B
:1009A0000AB1016170470904FBE700000148806853
:1009B000704700000000002002488168027811445E
:1009C0008160704700000020074810B5016841F0C1
:1009D00010010160032000F067F80F2000F006F816
:1009E00000F024F8002010BD0020024070B50D4D2D
:1009F00004464FF47A712878B1FBF0F00A4909688F
:100A0000B1FBF0F000F038FC48B9102C07D20022FE
:100A10002146501E00F028F800206C6070BD0120B7
:100A200070BD0000000000200C0000200C4808B53C
:100A3000816941F001018161816901F00101009149
:100A4000C16941F08051C161C06900F080500090DF
:100A50000448416821F0E06141F00071416008BD47
:100A60000010024000000140F0B40E4B1B680C4621
:100A7000C3F30223C3F10705042D00D90425191D72
:100A8000072901D2002300E0DB1E012606FA05F14A
:100A9000491E214099409E40761E16403143F0BCCD
:100AA00001F04CBC0CED00E0064900F007020868BC
:100AB0004FF6FF03184040EA0220034A1043086043
:100AC000704700000CED00E00000FA052DE9F0474A
:100AD0000F46050061D0434E306800F00700B84271
:100AE00009D2306820F0070038433060306800F0E9
:100AF0000700B84251D128683B4C810712D5400706
:100B000003D5606840F4E06060602878000703D592
:100B1000606840F4605060606068A96820F0F00090
:100B2000084360602878C00728D06868012810D082
:100B30002168022810D0890700292EDA616821F087
:100B4000030101436160FFF731FF804641F28839BC
:100B50000DE021688903EFE78901EDE7FFF726FF44
:100B6000A0EB0801494502D90320BDE8F087606881
:100B7000696800F00C00B0EB810FEFD1306800F035
:100B80000700B8420BD9306820F0070038433060C6
:100B9000306800F00700B84201D00120E5E728786E
:100BA000400705D56068E96820F4E06008436060AC
:100BB0002878000706D56068296920F4605040EA6B
:100BC000C100606000F018F86168084AC1F30311C1
:100BD000515CC8400649086006480068FFF706FFF8
:100BE0000020C2E70020024000100240B2230008AB
:100BF0000C000020040000200E4A51680E4801F04D
:100C00000C03042B11D0082B0FD10C48C1F38343E4
:100C1000C903C05C0AD55168084AC1F34041921E1D
:100C2000515C054A5043B0FBF1F07047044948431A
:100C3000704700000010024000127A00A223000852
:100C400000093D002DE9F84F040070D02078C04D18
:100C5000C00749D06868C0F38100012807D06868E0
:100C6000C0F38100022809D16868C00306D528684E
:100C7000800339D560680028E7D035E06068B0F5BA
:100C8000803F0BD010B1B0F5A02F11D0286820F410
:100C900080302860286820F4802002E0286840F432
:100CA00080302860606890B1FFF780FE06460AE059
:100CB000286840F480202860F0E700BFFFF776FE48
:100CC000801B642873D828688003F7D50CE0FFF7F1
:100CD0006DFE064605E000BFFFF768FE801B642836
:100CE000F0D828688003F7D420789A4E80074FF018
:100CF00001094FF0000839D5686810F00C0F07D0D3
:100D00006868C0F38100022809D16868C00306D46E
:100D10002868800714D52069012808D110E02069CF
:100D2000B0B1C6F80090FFF741FE074605E00AE1C2
:100D3000FFF73CFEC01B0228C4D828688007F7D5FF
:100D40002868616920F0F80040EAC10028600DE0E1
:100D5000C6F80080FFF72AFE074604E0FFF726FEEC
:100D6000C01B022823D828688007F7D42078000702
:100D70002CD57948A169D9B1C0F80090FFF716FECB
:100D8000074604E0FFF712FEC01B02280FD8686A6E
:100D90008007F7D571484FF4FA510068B0FBF1F0C5
:100DA000009000BF0098411E0091FAD20EE080E052
:100DB000C0F80080FFF7FAFD074604E0FFF7F6FDF4
:100DC000C01B022875D8686A8007F7D420784007CE
:100DD00060D5E8690027C00008D4E86940F0805079
:100DE000E861E869012700F0805000905C480168E4
:100DF000C90513D40168834641F480710160FFF78F
:100E0000D5FD824606E000BFFFF7D0FDA0EB0A004B
:100E100064284ED8DBF80000C005F5D5E06801284D
:100E20000AD008B1052813D0286A20F001002862F2
:100E3000286A20F0040002E0286A40F001002862DD
:100E4000E06841F2883B98B1FFF7B0FD82460BE0C5
:100E5000286A40F004002862EEE700BFFFF7A6FD15
:100E6000A0EB0A0159455AD8286A8007F6D50CE04C
:100E7000FFF79CFD824605E0FFF798FDA0EB0A0115
:100E800059454CD8286A8007F6D41FB1E86920F08C
:100E90008050E861E06988B36968C1F38101022983
:100EA00044D00228C6F8608004D0FFF77FFD0446D6
:100EB00038E034E0FFF77AFD074604E0FFF776FDFF
:100EC000C01B02282BD828688001F7D4206AB0F50F
:100ED000803F05D16868A16820F40030084368604D
:100EE000D4E908010843696821F474110843686073
:100EF000C6F86090FFF75AFD044606E025E000BF03
:100F0000FFF754FD001B022809D828688001F7D597
:100F10001BE000BFFFF74AFD001B022802D9032097
:100F2000BDE8F88F28688001F4D40EE00128F7D0DE
:100F30006868226A00F48031914204D1616A00F449
:100F40007010884201D00120EAE70020E8E70000A5
:100F50000010024000004242800442420C00002087
:100F60000070004070B5040009D0606A002540B1EF
:100F700025616561A56294F8510040B10CE0012043
:100F800070BD6068B0F5827FF4D0E561F2E784F867
:100F90005050204600F040F8022084F851002068AC
:100FA000016821F040010160A088218900F482706D
:100FB00001F404410843A18901F400610843217C44
:100FC00001F002010843217D01F001010843218B5A
:100FD00001F400710843217F01F03801084394F8BF
:100FE000201001F080010843218D01F400510843D5
:100FF00021680860A069042101EA10402168486066
:101000002068C16921F40061C1616565012084F82F
:101010005100002070BD000030B585B00024009460
:1010200001940294039400681449884223D114481F
:10103000816941F480518161816901F48051049199
:10104000816941F00401816180690E4D00F0040066
:101050000490A02000900220019003200390694694
:101060002846FFF7ADFB4020CDE90004694628463D
:101070000294FFF7A5FB05B030BD00000030014031
:1010800000100240000801402DE9FF4F81B01D46CD
:10109000934604464FF001090E9EFFF787FC074672
:1010A00094F851006168012806D0B1F5827F3CD1E7
:1010B000A168C9BB042838D10298002871D0BBF1BF
:1010C000000FFBD0002DF9D094F8500001282CD04F
:1010D0004FF0010A84F850A094F85100042802D07F
:1010E000052084F851004FF00008C4F85480C4F87B
:1010F00038B0E587A58702992163E586A586C4F8FF
:101100004080C4F8448020680168490603D401681F
:1011100041F040010160E068B0F5006F606808D000
:10112000F0B3012D49D081E0FFE7022005B0BDE812
:10113000F08F08B1012D39D1206B21680088C8607B
:10114000206B801C2063E08E401EE0862EE020682D
:10115000816889070FD5E18E69B1B9F1010F0AD114
:10116000216B0988C160206B801C2063E08E401ECB
:10117000E0864FF0000920688168C9070CD0E18F34
:1011800051B1C068A16B0880A06B801CA063E08F88
:10119000401EE0874FF00109FFF708FCC01B01E08B
:1011A0000BE067E0B04201D3701C50D1E08E002804
:1011B000CDD1E08F0028CAD13EE0206B21680078B5
:1011C0000873206B401C2063E08E401EE0862DE0FB
:1011D0002068816889070FD5E18E69B1B9F1010FE7
:1011E0000AD1216B09780173206B401C2063E08ECB
:1011F000401EE0864FF0000920688168C9070CD0C6
:10120000E18F51B1C068A16B0870A06B401CA06356
:10121000E08F401EE0874FF00109FFF7C7FBC01BBE
:10122000B04202D3701C01D011E086B1E08E0028DC
:10123000CED1E08F0028CBD13A463146204600F08F
:1012400069FE50B12020606584F8508012E084F877
:1012500051A084F85080032068E7A06818B920687E
:10126000C1688068009084F851A084F85080606D57
:101270000028F1D0012059E710B5401EB0F1807F61
:1012800001D3012010BD4FF0E02460610F216017F1
:1012900001F054F80020A06107202061002010BD5B
:1012A00070B590F83C20012A26D0012480F83C40FB
:1012B000022280F83D2003685A689D6822F070067B
:1012C0000A6832435A600D4B02689A4208D0B2F164
:1012D000804F05D00A4B9A4202D00A4B9A4204D161
:1012E000496825F080031943916080F83D40002152
:1012F00080F83C10084670BD022070BD002C0140F3
:10130000000400400008004010B5040003D094F829
:101310003D0010B107E0012010BD002084F83C0022
:10132000204600F01FF8022084F83D00211D2068AF
:1013300000F0E2FE012084F8460084F83E0084F8C4
:101340003F0084F8400084F8410084F8420084F8AB
:10135000430084F8440084F8450084F83D000020F0
:1013600010BD000008B5174A01681748914207D11F
:10137000816941F400618161806900F4006014E0DA
:10138000B1F1804F0AD0114A914210D1C16941F0A8
:101390000201C161C06900F0020006E0C16941F0CC
:1013A0000101C161C06900F00100009008BD084A58
:1013B0009142FBD1C16941F00401C161C06900F0F3
:1013C0000400F2E7002C014000100240000400403D
:1013D0000008004070B5044690F83C000025012844
:1013E00017D0012684F83C60022084F83D00206874
:1013F000826822F0770222F47F42826008685028D7
:1014000038D00DDC20284FD005DC90B3102811D146
:101410004AE0022070BD302846D040280AD13BE087
:1014200060282FD070280DD0B0F5805F03D0B0F5C4
:10143000005F12D0012584F83D60002084F83C0054
:10144000284670BDCB68D1E90121206800F09DFEDF
:101450002068816841F0770109E0CB68D1E901217A
:10146000206800F092FE2068816841F4804181602C
:10147000E1E719E0CA684968206800F03BFF5021A5
:10148000206806E0CA684968206800F044FF6021CF
:10149000206800F084FECEE7CA684968206800F042
:1014A00029FF40212068F4E7226801461046F0E752
:1014B00010B586B00021009101910291039103685B
:1014C000224A0221B3F1804F1DD0214C2148A34272
:1014D00028D1936943F0080393619269039102F064
:1014E000080204923322CDE900216946FFF768F92A
:1014F0001948416821F4406141F0E06141F4006124
:10150000416006B010BD906940F0040090619069A0
:10151000039100F0040004900F20CDE9000169461A
:101520000E4810E00E4CA342EBD1936943F0080340
:1015300093619269039102F0080204924FF4707271
:10154000CDE900216946FFF73BF9DAE700100240D8
:1015500000040040000C0140000001400008014070
:101560000008004070B5044690F83C0000260D4687
:1015700001280FD0012084F83C006AB1042A1DD054
:10158000082A2FD00C2A3FD00126002084F83C00E6
:10159000304670BD022070BD206800F009FE206852
:1015A000816941F0080181612068816921F00401AD
:1015B0008161206881692A69114311E0206800F087
:1015C0001FFE2068816941F40061816120688169A2
:1015D00021F480618161206881692A6941EA0221E0
:1015E0008161D2E7206800F037FE2068C16941F0D0
:1015F0000801C1612068C16921F00401C16120684E
:10160000C1692A69114311E0206800F051FE206889
:10161000C16941F40061C1612068C16921F4806140
:10162000C1612068C1692A6941EA0221C161ACE750
:1016300010B5040003D094F83D0010B107E001207C
:1016400010BD002084F83C00204600F01EF8022067
:1016500084F83D00211D206800F04EFD012084F833
:10166000460084F83E0084F83F0084F8400084F887
:10167000410084F8420084F8430084F8440084F870
:10168000450084F83D00002010BD704710B50446A9
:10169000022249B104290ED0082913D094F8410040
:1016A000012816D0012010BD94F83E000128F9D180
:1016B00084F83E200FE094F83F000128F2D184F82E
:1016C0003F2008E094F840000128EBD184F8402046
:1016D00001E084F841200122206800F049FD0F4913
:1016E0002068884203D1426C42F400424264206880
:1016F000884208D0B0F1804F05D00949884202D015
:101700000849884204D1816801F00701062903D005
:10171000016841F001010160002010BD002C014072
:10172000000400400008004030B504460D46006843
:10173000002200F01DFD174B41F2111120688A10A4
:10174000984209D1036A0B4206D1036A134203D1BE
:10175000436C23F4004343642068036A0B4206D1C0
:10176000016A114203D1016821F0010101600120E9
:101770003DB1042D08D0082D09D084F84100002087
:1017800030BD84F83E00FAE784F83F00F7E784F8BC
:101790004000F4E7002C0140FEE7000030B585B0C2
:1017A000002417480094019402940394816941F045
:1017B00020018161816901F020010491816941F07A
:1017C00004018161816901F004010491816941F0A2
:1017D0000801816180690B4D00F00800049000222F
:1017E00010212846FFF7DCF8102001218DE81300B6
:1017F000039169462846FEF7E3FF05B030BD0000BF
:101800000010024000080140104810B50E49016068
:101810004FF482714160002102228160C0E903120D
:101820001202C0E905123822C2618022C0E90821F3
:1018300081620A21C162FFF795FB002803D0BDE851
:101840001040FEF7BBBF10BD00300140400000203B
:1018500010B586B0002417480094019402940394B4
:1018600004941349059401604721C0E901144FF61F
:10187000FF71C0E9031444618461FFF745FD08B1BD
:10188000FEF79CFF4FF48050009069460948FFF72F
:10189000A1FD08B1FEF792FF049404A90548059440
:1018A000FFF7FEFC002801D0FEF788FF06B010BD50
:1018B000002C01409800002010B58EB00024079441
:1018C000089409940A940B941C2168460C94FEF722
:1018D000D5FC2A484FF08041016040F2CF21C0E999
:1018E000011440F2E731C0E903148461FFF70CFDF5
:1018F00008B1FEF763FF4FF48050079007A91F4817
:10190000FFF768FD08B1FEF759FF1C48FFF790FE8E
:1019100008B1FEF753FF0B940BA918480C94FFF77E
:10192000BFFC08B1FEF74AFF6020CDE90004029435
:101930000022694611480494FFF714FE08B1FEF72F
:101940003DFF042269460D48FFF70CFE08B1FEF783
:1019500035FF082269460948FFF704FE08B1FEF783
:101960002DFF0C2269460548FFF7FCFD08B1FEF784
:1019700025FF0248FFF79CFD0EB010BDE0000020DF
:1019800010B58EB000240794089409940A940B941F
:101990001C2168460C94FEF771FC2B482949016014
:1019A00040F2CF21C0E9011440F2CF71C0E9031425
:1019B0008461FFF7A9FC08B1FEF700FF4FF48050E7
:1019C000079007A92048FFF705FD08B1FEF7F6FECE
:1019D0001D48FFF72DFE08B1FEF7F0FE0B940BA992
:1019E00019480C94FFF75CFC08B1FEF7E7FE602095
:1019F000CDE9000402940022694613480494FFF7DD
:101A0000B1FD08B1FEF7DAFE042269460E48FFF781
:101A1000A9FD08B1FEF7D2FE082269460A48FFF781
:101A2000A1FD08B1FEF7CAFE0C2269460648FFF781
:101A300099FD08B1FEF7C2FE0348FFF739FD0EB06D
:101A400010BD0000000400402801002010B58EB039
:101A500000240794089409940A940B941C21684666
:101A60000C94FEF70BFC2B482949016040F2CF2172
:101A7000C0E9011440F2E731C0E903148461FFF7C3
:101A800043FC08B1FEF79AFE4FF48050079007A977
:101A90002048FFF79FFC08B1FEF790FE1D48FFF7B6
:101AA000C7FD08B1FEF78AFE0B940BA919480C94E8
:101AB000FFF7F6FB08B1FEF781FE6020CDE90004D8
:101AC00002940022694613480494FFF74BFD08B1C5
:101AD000FEF774FE042269460E48FFF743FD08B185
:101AE000FEF76CFE082269460A48FFF73BFD08B185
:101AF000FEF764FE0C2269460648FFF733FD08B185
:101B0000FEF75CFE0348FFF7D3FC0EB010BD0000EB
:101B10000008004070010020FEE7000010B508201A
:101B2000FEF756FB164C20600420FEF751FB21689F
:101B300048600C20FEF74CFB216808600620FEF789
:101B400047FB2168496808600820FEF741FB2168CF
:101B5000096808601020FEF73BFB216809684860AF
:101B60000220FEF735FB21680A6890600868FEF7DE
:101B70006BFD20684068BDE81040FEF7D2BC000055
:101B80003C00002070B5044609480D460068006816
:101B90004068007C41280AD0732808D12068FEF7ED
:101BA000D8FD29466068BDE87040FEF712BD70BDE3
:101BB0001800002000210A4620F8212000EB8103B4
:101BC000491CC9B29A700429F6D3704710B5002297
:101BD0005FF0020320F8221000EB8204521CD2B204
:101BE000A370042AF6D3074982890B681A6409682E
:101BF00002898A63044902880B689A6309688088AD
:101C0000086410BDE00000207001002010B50C2118
:101C10000848FFF73BFD04210648FFF737FD042184
:101C20000548FFF733FDBDE810400C210248FFF7DF
:101C30002DBD0000E00000207001002010B5144C04
:101C4000002208212046FEF7ABFE0022022120469A
:101C5000FEF7A6FE0F4C002280212046FEF7A0FED4
:101C6000002261152046FEF79BFE0C210A48FFF773
:101C70005BFD04210848FFF757FD04210748FFF7E3
:101C800053FDBDE810400C210448FFF74DBD000096
:101C900000080140000C0140E0000020700100201D
:101CA00010B500225FF0010320F8221000EB82043F
:101CB000521CD2B2A370042AF6D3074982890B685A
:101CC000DA63096802894A63044902880B685A6327
:101CD00009688088C86310BDE00000207001002002
:101CE00010B508210848FFF7D1FC00210648FFF78E
:101CF000CDFC00210548FFF7C9FCBDE810400821D4
:101D00000248FFF7C3BC0000E00000207001002083
:101D100010B5144C002204212046FEF741FE00229B
:101D200001212046FEF73CFE0F4C002240212046B8
:101D3000FEF736FE0022A1152046FEF731FE0821EF
:101D40000A48FFF7F1FC00210848FFF7EDFC0021ED
:101D50000748FFF7E9FCBDE8104008210448FFF7F9
:101D6000E3BC000000080140000C0140E00000203E
:101D70007001002000210A4620F8212000EB810399
:101D8000491CC9B29A700429F6D3074982890B68A5
:101D9000DA63096802894A63044902880B685A6356
:101DA00009688088C8637047E00000207001002047
:101DB000FEE7704704494A7902708A794270CA790D
:101DC0008270097AC1707047B80100201D494A78B5
:101DD0000274CA78D209C271CA78C2F380128271C1
:101DE000CA78C2F340124271CA78C2F3001202717B
:101DF000CA78C2F3C002C270CA78C2F3800282708D
:101E0000CA78C2F340024270CA7802F0010202703E
:101E10000979CA098273C1F380124273C1F3401277
:101E20000273C1F30012C273C1F3C002C272C1F3E4
:101E300080028272C1F34002427201F0010101721C
:101E400070470000B80100202DE9F84FDFF894A09A
:101E50000746002210215046FEF7A2FD4FF6FF75FF
:101E60000123214A214922480095FFF70DF912204C
:101E7000FEF786FCDFF874901B4C4E460123621C73
:101E8000711C1B480095FFF7FFF81220FEF778FC45
:101E90000123A21CB11C16480095FFF7F5F812208B
:101EA000FEF76EFCA84603264D46A2190123A91C85
:101EB0000F48CDF80080FFF7E7F8386800F01AF80F
:101EC0001220FEF75DFC761CF6B2092EEDD301223E
:101ED00010215046FEF764FDBDE8F84F41F288300E
:101EE000FEF74EBC00080140B801002010000020A1
:101EF0004000002000B503464068FFF767FF186800
:101F00005DF804EBFFF756BF0148011F886070477A
:101F100014000020F8B515460E460B460092044604
:101F20000122022100F010F840B93346002280213E
:101F30002046009500F008F8002804D0606D40F0BD
:101F4000200060650320F8BD2DE9F8431E46914648
:101F500088460446089DFEF729FD401B351AFEF70A
:101F600025FD074625480068C0F3CB30684338E0BC
:101F7000701C37D0FEF71AFDC01BA84203D215B162
:101F8000009860B32CE02068416821F0E0014160D6
:101F90006068B0F5827F0BD1A068B0F5004F02D029
:101FA000B0F5806F04D12068016821F04001016024
:101FB000A06AB0F5005F09D12068016821F40051E2
:101FC00001602068016841F400510160012084F83B
:101FD0005100002084F850000320BDE8F88300255C
:101FE000401E00902068816838EA010004D000217A
:101FF0004945BDD10020F0E70121F9E70C000020A0
:1020000070470000014909680864704728010020F2
:10201000032803D10C210248FFF738BB70470000AA
:102020002801002001490968486370472801002001
:10203000962241B1012908D0022908D0032901D1F3
:102040008E21C18070470280704742807047AA216C
:102050008180704701490968886370472801002022
:10206000012803D104210248FFF710BB704700008C
:102070002801002001490968C86370472801002031
:10208000022803D108210248FFF700BB7047000077
:1020900028010020FEF790BC30B58FB0282168469B
:1020A000FEF7ECF814210AA8FEF7E8F8012108046D
:1020B000CDE900100024029402250491CDE90750D7
:1020C0004FF4E01009906846FEF7BCFD08B172B607
:1020D000FEE70F20CDE90A054FF48060CDE90C4002
:1020E0000E9002210AA8FEF7F1FC002801D072B67A
:1020F000FEE70FB030BD7047F0B50268194B1A4CBF
:102100001A4D4FF08047984205D0B84203D0A04204
:1021100001D0A84203D122F070064A6832439842A7
:1021200005D0B84203D0A04201D0A84203D122F486
:102130004074CA6822434C6922F080022243026044
:102140008A68C2620A688262984201D109690163A1
:10215000012141610169C90703D0016921F0010131
:102160000161F0BD002C0140000400400008004067
:1021700010B501F01F030121046A99408C430462E9
:10218000016A9A401143016210BD10B5846842EAA9
:10219000032224F47F440A432243826010BD8268F4
:1021A00022F070020A4342F007018160704700008C
:1021B00030B5036A026A22F0010202624268846951
:1021C00024F073050C682C4323F002058B682B4325
:1021D0000A4DA8420BD123F00805CB6822F44072C7
:1021E0002B434D6923F0040315438A692A43426057
:1021F000846149684163036230BD0000002C0140E6
:1022000030B5026A036A23F01003036243688469ED
:102210000D6824F4E64444EA05248D6822F0200287
:1022200042EA05120B4DA8420ED1CD6822F0800281
:1022300042EA05124D6923F4406343EA85038D6940
:1022400022F0400243EA8503436084614968816368
:10225000026230BD002C014030B5036A026A22F4EC
:10226000807202624268C46923F4007324F073052B
:102270000C682C438D6843EA05230C4DA8420ED10F
:10228000CD6823F4006343EA05234D6922F44052EC
:1022900042EA05128D6923F4806342EA0512426026
:1022A000C4614968C163036230BD0000002C014075
:1022B00030B5046A026A22F4805202624268C3693D
:1022C0000D6823F4E64343EA05238D6824F40054A3
:1022D00044EA0534064DA84204D14D6922F48042F7
:1022E00042EA85124260C36149680164046230BDFC
:1022F000002C014010B5036A046A24F00104046252
:10230000846924F0F00444EA021423F00A020A4328
:102310008461026210BD10B5036A046A24F01004DF
:102320000462846923F0A00324F4704444EA023276
:1023300043EA01118261016210BDFEE70907090E3F
:10234000002804DB00F1E02080F80014704700F062
:102350000F0000F1E02080F8141D7047FEF734FBF9
:10236000FFF79AFEFFF71AFAFFF74EFAFFF7A4FA03
:10237000FFF706FBFFF76AFBFFF76AFAFFF7C4FDFA
:10238000FFF7CCFB044C054D2068FFF75DFD21688D
:102390002868FFF7F7FBF7E7180000203C00002053
:1023A000010202030405060708090A0B0C0D0E0FB3
:1023B00010100000000000000000010203040607E6
:1023C00008090000E423000800000020400000008D
:1023D000280100082424000840000020E80700002D
:1023E000440100080100000010000000000000008F
:1023F00000127A00014200003400002000000000BA
:10240000807F807F010101010101010101010101C2
:1024100001010101010000001C000020200000203B
:0424200000000000B8
:04000005080000ED02
:00000001FF
